{
  "contractName": "SimpleAuction",
  "abi": [
    {
      "inputs": [
        {
          "internalType": "uint256",
          "name": "_biddingTime",
          "type": "uint256"
        },
        {
          "internalType": "address payable",
          "name": "_beneficiary",
          "type": "address"
        }
      ],
      "stateMutability": "nonpayable",
      "type": "constructor"
    },
    {
      "anonymous": false,
      "inputs": [
        {
          "indexed": false,
          "internalType": "address",
          "name": "winner",
          "type": "address"
        },
        {
          "indexed": false,
          "internalType": "uint256",
          "name": "amount",
          "type": "uint256"
        }
      ],
      "name": "AuctionEnded",
      "type": "event"
    },
    {
      "anonymous": false,
      "inputs": [
        {
          "indexed": false,
          "internalType": "address",
          "name": "bidder",
          "type": "address"
        },
        {
          "indexed": false,
          "internalType": "uint256",
          "name": "amount",
          "type": "uint256"
        }
      ],
      "name": "HighestBidIncreased",
      "type": "event"
    },
    {
      "inputs": [],
      "name": "auctionEndTime",
      "outputs": [
        {
          "internalType": "uint256",
          "name": "",
          "type": "uint256"
        }
      ],
      "stateMutability": "view",
      "type": "function",
      "constant": true
    },
    {
      "inputs": [],
      "name": "beneficiary",
      "outputs": [
        {
          "internalType": "address payable",
          "name": "",
          "type": "address"
        }
      ],
      "stateMutability": "view",
      "type": "function",
      "constant": true
    },
    {
      "inputs": [],
      "name": "highestBid",
      "outputs": [
        {
          "internalType": "uint256",
          "name": "",
          "type": "uint256"
        }
      ],
      "stateMutability": "view",
      "type": "function",
      "constant": true
    },
    {
      "inputs": [],
      "name": "highestBidder",
      "outputs": [
        {
          "internalType": "address",
          "name": "",
          "type": "address"
        }
      ],
      "stateMutability": "view",
      "type": "function",
      "constant": true
    },
    {
      "inputs": [
        {
          "internalType": "address",
          "name": "bidder",
          "type": "address"
        },
        {
          "internalType": "uint256",
          "name": "amount",
          "type": "uint256"
        }
      ],
      "name": "bid",
      "outputs": [],
      "stateMutability": "payable",
      "type": "function",
      "payable": true
    },
    {
      "inputs": [],
      "name": "withdraw",
      "outputs": [
        {
          "internalType": "bool",
          "name": "",
          "type": "bool"
        }
      ],
      "stateMutability": "nonpayable",
      "type": "function"
    },
    {
      "inputs": [],
      "name": "auctionEnd",
      "outputs": [],
      "stateMutability": "nonpayable",
      "type": "function"
    }
  ],
  "bytecode": "0x60806040523480156200001157600080fd5b5060405162000c8938038062000c89833981810160405281019062000037919062000138565b806000806101000a81548173ffffffffffffffffffffffffffffffffffffffff021916908373ffffffffffffffffffffffffffffffffffffffff1602179055508142620000859190620001ae565b60018190555050506200020b565b600080fd5b6000819050919050565b620000ad8162000098565b8114620000b957600080fd5b50565b600081519050620000cd81620000a2565b92915050565b600073ffffffffffffffffffffffffffffffffffffffff82169050919050565b60006200010082620000d3565b9050919050565b6200011281620000f3565b81146200011e57600080fd5b50565b600081519050620001328162000107565b92915050565b6000806040838503121562000152576200015162000093565b5b60006200016285828601620000bc565b9250506020620001758582860162000121565b9150509250929050565b7f4e487b7100000000000000000000000000000000000000000000000000000000600052601160045260246000fd5b6000620001bb8262000098565b9150620001c88362000098565b9250827fffffffffffffffffffffffffffffffffffffffffffffffffffffffffffffffff038211156200020057620001ff6200017f565b5b828201905092915050565b610a6e806200021b6000396000f3fe6080604052600436106100705760003560e01c80634b449cba1161004e5780634b449cba146100e257806359d667a51461010d57806391f9015714610129578063d57bde791461015457610070565b80632a24f46c1461007557806338af3eed1461008c5780633ccfd60b146100b7575b600080fd5b34801561008157600080fd5b5061008a61017f565b005b34801561009857600080fd5b506100a16102f7565b6040516100ae9190610645565b60405180910390f35b3480156100c357600080fd5b506100cc61031b565b6040516100d9919061067b565b60405180910390f35b3480156100ee57600080fd5b506100f761043f565b60405161010491906106af565b60405180910390f35b61012760048036038101906101229190610739565b610445565b005b34801561013557600080fd5b5061013e6105d8565b60405161014b9190610788565b60405180910390f35b34801561016057600080fd5b506101696105fe565b60405161017691906106af565b60405180910390f35b6001544210156101c4576040517f08c379a00000000000000000000000000000000000000000000000000000000081526004016101bb90610800565b60405180910390fd5b600560009054906101000a900460ff1615610214576040517f08c379a000000000000000000000000000000000000000000000000000000000815260040161020b90610892565b60405180910390fd5b6001600560006101000a81548160ff0219169083151502179055507fdaec4582d5d9595688c8c98545fdd1c696d41c6aeaeb636737e84ed2f5c00eda600260009054906101000a900473ffffffffffffffffffffffffffffffffffffffff166003546040516102849291906108b2565b60405180910390a160008054906101000a900473ffffffffffffffffffffffffffffffffffffffff1673ffffffffffffffffffffffffffffffffffffffff166108fc6003549081150290604051600060405180830381858888f193505050501580156102f4573d6000803e3d6000fd5b50565b60008054906101000a900473ffffffffffffffffffffffffffffffffffffffff1681565b600080600460003373ffffffffffffffffffffffffffffffffffffffff1673ffffffffffffffffffffffffffffffffffffffff1681526020019081526020016000205490506000811115610436576000600460003373ffffffffffffffffffffffffffffffffffffffff1673ffffffffffffffffffffffffffffffffffffffff168152602001908152602001600020819055503373ffffffffffffffffffffffffffffffffffffffff166108fc829081150290604051600060405180830381858888f193505050506104355780600460003373ffffffffffffffffffffffffffffffffffffffff1673ffffffffffffffffffffffffffffffffffffffff16815260200190815260200160002081905550600091505061043c565b5b60019150505b90565b60015481565b60015442111561048a576040517f08c379a000000000000000000000000000000000000000000000000000000000815260040161048190610927565b60405180910390fd5b60035481116104ce576040517f08c379a00000000000000000000000000000000000000000000000000000000081526004016104c590610993565b60405180910390fd5b6000600354146105535760035460046000600260009054906101000a900473ffffffffffffffffffffffffffffffffffffffff1673ffffffffffffffffffffffffffffffffffffffff1673ffffffffffffffffffffffffffffffffffffffff168152602001908152602001600020600082825461054b91906109e2565b925050819055505b81600260006101000a81548173ffffffffffffffffffffffffffffffffffffffff021916908373ffffffffffffffffffffffffffffffffffffffff160217905550806003819055507ff4757a49b326036464bec6fe419a4ae38c8a02ce3e68bf0809674f6aab8ad30033346040516105cc9291906108b2565b60405180910390a15050565b600260009054906101000a900473ffffffffffffffffffffffffffffffffffffffff1681565b60035481565b600073ffffffffffffffffffffffffffffffffffffffff82169050919050565b600061062f82610604565b9050919050565b61063f81610624565b82525050565b600060208201905061065a6000830184610636565b92915050565b60008115159050919050565b61067581610660565b82525050565b6000602082019050610690600083018461066c565b92915050565b6000819050919050565b6106a981610696565b82525050565b60006020820190506106c460008301846106a0565b92915050565b600080fd5b60006106da82610604565b9050919050565b6106ea816106cf565b81146106f557600080fd5b50565b600081359050610707816106e1565b92915050565b61071681610696565b811461072157600080fd5b50565b6000813590506107338161070d565b92915050565b600080604083850312156107505761074f6106ca565b5b600061075e858286016106f8565b925050602061076f85828601610724565b9150509250929050565b610782816106cf565b82525050565b600060208201905061079d6000830184610779565b92915050565b600082825260208201905092915050565b7f41756374696f6e206e6f742079657420656e6465642e00000000000000000000600082015250565b60006107ea6016836107a3565b91506107f5826107b4565b602082019050919050565b60006020820190508181036000830152610819816107dd565b9050919050565b7f61756374696f6e456e642068617320616c7265616479206265656e2063616c6c60008201527f65642e0000000000000000000000000000000000000000000000000000000000602082015250565b600061087c6023836107a3565b915061088782610820565b604082019050919050565b600060208201905081810360008301526108ab8161086f565b9050919050565b60006040820190506108c76000830185610779565b6108d460208301846106a0565b9392505050565b7f41756374696f6e20616c726561647920656e6465642e00000000000000000000600082015250565b60006109116016836107a3565b915061091c826108db565b602082019050919050565b6000602082019050818103600083015261094081610904565b9050919050565b7f546865726520616c7265616479206973206120686967686572206269642e0000600082015250565b600061097d601e836107a3565b915061098882610947565b602082019050919050565b600060208201905081810360008301526109ac81610970565b9050919050565b7f4e487b7100000000000000000000000000000000000000000000000000000000600052601160045260246000fd5b60006109ed82610696565b91506109f883610696565b9250827fffffffffffffffffffffffffffffffffffffffffffffffffffffffffffffffff03821115610a2d57610a2c6109b3565b5b82820190509291505056fea26469706673582212207f245da2b8739c83cc79232af1627b8c1febb2cbd19e922250ecb623e30cae4064736f6c63430008090033",
  "immutableReferences": {},
  "source": "// SPDX-License-Identifier: GPL-3.0\npragma solidity >=0.5.0 <0.9.0;\n\ncontract SimpleAuction {\n    // Parameters of the auction. Times are either\n    // absolute unix timestamps (seconds since 1970-01-01)\n    // or time periods in seconds.\n    address payable public beneficiary;\n    uint public auctionEndTime;\n\n    // Current state of the auction.\n    address public highestBidder;\n    uint public highestBid;\n\n    // Allowed withdrawals of previous bids\n    mapping(address => uint) pendingReturns;\n\n    // Set to true at the end, disallows any change.\n    // By default initialized to `false`.\n    bool ended;\n\n    // Events that will be emitted on changes.\n    event HighestBidIncreased(address bidder, uint amount);\n    event AuctionEnded(address winner, uint amount);\n\n    // The following is a so-called natspec comment,\n    // recognizable by the three slashes.\n    // It will be shown when the user is asked to\n    // confirm a transaction.\n\n    /// Create a simple auction with `_biddingTime`\n    /// seconds bidding time on behalf of the\n    /// beneficiary address `_beneficiary`.\n    constructor(\n        uint _biddingTime,\n        address payable _beneficiary\n    ) public {\n        beneficiary = _beneficiary;\n        auctionEndTime = block.timestamp + _biddingTime;\n    }\n\n    /// Bid on the auction with the value sent\n    /// together with this transaction.\n    /// The value will only be refunded if the\n    /// auction is not won.\n    function bid(address bidder, uint amount) public payable {\n        //The bidder address and bid amount are passed as function arguments.\n        // The keyword payable\n        // is required for the function to\n        // be able to receive Ether.\n\n        // Revert the call if the bidding\n        // period is over.\n        require(\n            block.timestamp <= auctionEndTime,\n            \"Auction already ended.\"\n        );\n\n        // If the bid is not higher, send the\n        // money back (the failing require\n        // will revert all changes in this\n        // function execution including\n        // it having received the money).\n        require(\n            amount > highestBid,\n            \"There already is a higher bid.\"\n        );\n\n        if (highestBid != 0) {\n            // Sending back the money by simply using\n            // highestBidder.send(highestBid) is a security risk\n            // because it could execute an untrusted contract.\n            // It is always safer to let the recipients\n            // withdraw their money themselves.\n            pendingReturns[highestBidder] += highestBid;\n        }\n        highestBidder = bidder;\n        highestBid = amount;\n        emit HighestBidIncreased(msg.sender, msg.value);\n    }\n\n    /// Withdraw a bid that was overbid.\n    function withdraw() public returns (bool) {\n        uint amount = pendingReturns[msg.sender];\n        if (amount > 0) {\n            // It is important to set this to zero because the recipient\n            // can call this function again as part of the receiving call\n            // before `send` returns.\n            pendingReturns[msg.sender] = 0;\n\n            if (!payable(msg.sender).send(amount)) {\n                // No need to call throw here, just reset the amount owing\n                pendingReturns[msg.sender] = amount;\n                return false;\n            }\n        }\n        return true;\n    }\n\n    /// End the auction and send the highest bid\n    /// to the beneficiary.\n    function auctionEnd() public {\n        // It is a good guideline to structure functions that interact\n        // with other contracts (i.e. they call functions or send Ether)\n        // into three phases:\n        // 1. checking conditions\n        // 2. performing actions (potentially changing conditions)\n        // 3. interacting with other contracts\n        // If these phases are mixed up, the other contract could call\n        // back into the current contract and modify the state or cause\n        // effects (ether payout) to be performed multiple times.\n        // If functions called internally include interaction with external\n        // contracts, they also have to be considered interaction with\n        // external contracts.\n\n        // 1. Conditions\n        require(block.timestamp >= auctionEndTime, \"Auction not yet ended.\");\n        require(!ended, \"auctionEnd has already been called.\");\n\n        // 2. Effects\n        ended = true;\n        emit AuctionEnded(highestBidder, highestBid);\n\n        // 3. Interaction\n        beneficiary.transfer(highestBid);\n    }\n}",
  "sourcePath": "/home/rtj/APYL/Blockchain/eth-python-flask/contracts/SimpleAuction.sol",
  "compiler": {
    "name": "solc",
    "version": "0.8.9+commit.e5eed63a.Emscripten.clang"
  },
  "schemaVersion": "3.4.3",
  "updatedAt": "2021-10-27T16:29:42.739Z",
  "networkType": "ethereum",
  "devdoc": {
    "kind": "dev",
    "methods": {},
    "version": 1
  },
  "userdoc": {
    "kind": "user",
    "methods": {
      "auctionEnd()": {
        "notice": "End the auction and send the highest bid to the beneficiary."
      },
      "bid(address,uint256)": {
        "notice": "Bid on the auction with the value sent together with this transaction. The value will only be refunded if the auction is not won."
      },
      "constructor": {
        "notice": "Create a simple auction with `_biddingTime` seconds bidding time on behalf of the beneficiary address `_beneficiary`."
      },
      "withdraw()": {
        "notice": "Withdraw a bid that was overbid."
      }
    },
    "version": 1
  }
}